11:48:20.939261 ens33 Out IP 192.168.31.131.51468 > 16.184.21.18.80: Flags [S], seq 3636513425, win 64240, options [mss 1460,sackOK,TS val 1989701136 ecr 0,nop,wscale 7], length 0
	0x0000:  0800 0000 0000 0002 0001 0406 000c 2934  ..............)4
	0x0010:  9886 0000 4500 003c 220d 4000 4006 12ba  ....E..<".@.@...
	0x0020:  c0a8 1f83 10b8 1512 c90c 0050 d8c0 ca91  ...........P....
	0x0030:  0000 0000 a002 faf0 0624 0000 0204 05b4  .........$......
	0x0040:  0402 080a 7698 6e10 0000 0000 0103 0307  ....v.n.........
11:48:20.945946 ens33 In  IP 16.184.21.18.80 > 192.168.31.131.51468: Flags [S.], seq 515465931, ack 3636513426, win 64240, options [mss 1460], length 0
	0x0000:  0800 0000 0000 0002 0001 0006 0050 56fd  .............PV.
	0x0010:  3039 0000 4500 002c 5021 0000 8006 e4b5  09..E..,P!......
	0x0020:  10b8 1512 c0a8 1f83 0050 c90c 1eb9 62cb  .........P....b.
	0x0030:  d8c0 ca92 6012 faf0 a8fb 0000 0204 05b4  ....`...........
	0x0040:  0000                                     ..
11:48:20.945975 ens33 Out IP 192.168.31.131.51468 > 16.184.21.18.80: Flags [.], ack 1, win 64240, length 0
	0x0000:  0800 0000 0000 0002 0001 0406 000c 2934  ..............)4
	0x0010:  9886 0000 4500 0028 220e 4000 4006 12cd  ....E..(".@.@...
	0x0020:  c0a8 1f83 10b8 1512 c90c 0050 d8c0 ca92  ...........P....
	0x0030:  1eb9 62cc 5010 faf0 0610 0000            ..b.P.......
11:48:20.946216 ens33 Out IP 192.168.31.131.51468 > 16.184.21.18.80: Flags [P.], seq 1:223, ack 1, win 64240, length 222: HTTP: POST /gate HTTP/1.1
	0x0000:  0800 0000 0000 0002 0001 0406 000c 2934  ..............)4
	0x0010:  9886 0000 4500 0106 220f 4000 4006 11ee  ....E...".@.@...
	0x0020:  c0a8 1f83 10b8 1512 c90c 0050 d8c0 ca92  ...........P....
	0x0030:  1eb9 62cc 5018 faf0 06ee 0000 504f 5354  ..b.P.......POST
	0x0040:  202f 6761 7465 2048 5454 502f 312e 310d  ./gate.HTTP/1.1.
	0x0050:  0a48 6f73 743a 2031 362e 3138 342e 3231  .Host:.16.184.21
	0x0060:  2e31 380d 0a55 7365 722d 4167 656e 743a  .18..User-Agent:
	0x0070:  2047 6f2d 6874 7470 2d63 6c69 656e 742f  .Go-http-client/
	0x0080:  312e 310d 0a43 6f6e 7465 6e74 2d4c 656e  1.1..Content-Len
	0x0090:  6774 683a 2036 340d 0a43 6f6e 7465 6e74  gth:.64..Content
	0x00a0:  2d54 7970 653a 2061 7070 6c69 6361 7469  -Type:.applicati
	0x00b0:  6f6e 2f6f 6374 6574 2d73 7472 6561 6d0d  on/octet-stream.
	0x00c0:  0a41 6363 6570 742d 456e 636f 6469 6e67  .Accept-Encoding
	0x00d0:  3a20 677a 6970 0d0a 0d0a 1a13 cdba ce72  :.gzip.........r
	0x00e0:  7eb7 6429 56cc b8b4 8129 18d3 f5e6 7c10  ~.d)V....)....|.
	0x00f0:  f9af cdc6 1dfc 6a89 c50b 0841 6246 d9bb  ......j....AbF..
	0x0100:  b948 f4ce 3bd4 d948 d7d2 5963 f343 bc53  .H..;..H..Yc.C.S
	0x0110:  d82b e179 8f2d 70aa 84cc                 .+.y.-p...
11:48:20.946393 ens33 In  IP 16.184.21.18.80 > 192.168.31.131.51468: Flags [.], ack 223, win 64240, length 0
	0x0000:  0800 0000 0000 0002 0001 0006 0050 56fd  .............PV.
	0x0010:  3039 0000 4500 0028 5022 0000 8006 e4b8  09..E..(P"......
	0x0020:  10b8 1512 c0a8 1f83 0050 c90c 1eb9 62cc  .........P....b.
	0x0030:  d8c0 cb70 5010 faf0 bfda 0000 0000 0000  ...pP...........
	0x0040:  0000                                     ..
11:48:20.953746 ens33 In  IP 16.184.21.18.80 > 192.168.31.131.51468: Flags [P.], seq 1:365, ack 223, win 64240, length 364: HTTP: HTTP/1.1 200 OK
	0x0000:  0800 0000 0000 0002 0001 0006 0050 56fd  .............PV.
	0x0010:  3039 0000 4500 0194 5023 0000 8006 e34b  09..E...P#.....K
	0x0020:  10b8 1512 c0a8 1f83 0050 c90c 1eb9 62cc  .........P....b.
	0x0030:  d8c0 cb70 5018 faf0 4e71 0000 4854 5450  ...pP...Nq..HTTP
	0x0040:  2f31 2e31 2032 3030 204f 4b0d 0a53 6572  /1.1.200.OK..Ser
	0x0050:  7665 723a 206e 6769 6e78 2f31 2e32 392e  ver:.nginx/1.29.
	0x0060:  310d 0a44 6174 653a 2053 756e 2c20 3238  1..Date:.Sun,.28
	0x0070:  2053 6570 2032 3032 3520 3131 3a34 383a  .Sep.2025.11:48:
	0x0080:  3230 2047 4d54 0d0a 436f 6e74 656e 742d  20.GMT..Content-
	0x0090:  5479 7065 3a20 6170 706c 6963 6174 696f  Type:.applicatio
	0x00a0:  6e2f 6f63 7465 742d 7374 7265 616d 0d0a  n/octet-stream..
	0x00b0:  436f 6e74 656e 742d 4c65 6e67 7468 3a20  Content-Length:.
	0x00c0:  3131 320d 0a43 6f6e 6e65 6374 696f 6e3a  112..Connection:
	0x00d0:  206b 6565 702d 616c 6976 650d 0a58 2d46  .keep-alive..X-F
	0x00e0:  7261 6d65 2d4f 7074 696f 6e73 3a20 4445  rame-Options:.DE
	0x00f0:  4e59 0d0a 582d 436f 6e74 656e 742d 5479  NY..X-Content-Ty
	0x0100:  7065 2d4f 7074 696f 6e73 3a20 6e6f 736e  pe-Options:.nosn
	0x0110:  6966 660d 0a58 2d58 5353 2d50 726f 7465  iff..X-XSS-Prote
	0x0120:  6374 696f 6e3a 2031 3b20 6d6f 6465 3d62  ction:.1;.mode=b
	0x0130:  6c6f 636b 0d0a 0d0a 0224 f596 53cd f528  lock.....$..S..(
	0x0140:  5602 3a53 52e1 a457 8de4 99af c887 d23d  V.:SR..W.......=
	0x0150:  c573 27c2 2790 92ad 8b85 b77c 850c 2eeb  .s'.'......|....
	0x0160:  e4a9 601e b7e6 fd0b 5aff db48 bc3f f633  ..`.....Z..H.?.3
	0x0170:  d796 3eea 70ed de4d 614c 0d26 7511 b8ac  ..>.p..MaL.&u...
	0x0180:  1827 332c 2265 9e41 b627 0375 dbdd 48d8  .'3,"e.A.'.u..H.
	0x0190:  22a9 3691 a6ca 14fa f363 e76f 7a1f 88fe  ".6......c.oz...
	0x01a0:  7b15 60ff 14aa bc22                      {.`...."
11:48:20.953771 ens33 Out IP 192.168.31.131.51468 > 16.184.21.18.80: Flags [.], ack 365, win 63876, length 0
	0x0000:  0800 0000 0000 0002 0001 0406 000c 2934  ..............)4
	0x0010:  9886 0000 4500 0028 2210 4000 4006 12cb  ....E..(".@.@...
	0x0020:  c0a8 1f83 10b8 1512 c90c 0050 d8c0 cb70  ...........P...p
	0x0030:  1eb9 6438 5010 f984 0610 0000            ..d8P.......
11:48:20.954146 ens33 Out IP 192.168.31.131.51468 > 16.184.21.18.80: Flags [P.], seq 223:494, ack 365, win 63876, length 271: HTTP: POST /gate HTTP/1.1
	0x0000:  0800 0000 0000 0002 0001 0406 000c 2934  ..............)4
	0x0010:  9886 0000 4500 0137 2211 4000 4006 11bb  ....E..7".@.@...
	0x0020:  c0a8 1f83 10b8 1512 c90c 0050 d8c0 cb70  ...........P...p
	0x0030:  1eb9 6438 5018 f984 071f 0000 504f 5354  ..d8P.......POST
	0x0040:  202f 6761 7465 2048 5454 502f 312e 310d  ./gate.HTTP/1.1.
	0x0050:  0a48 6f73 743a 2031 362e 3138 342e 3231  .Host:.16.184.21
	0x0060:  2e31 380d 0a55 7365 722d 4167 656e 743a  .18..User-Agent:
	0x0070:  2047 6f2d 6874 7470 2d63 6c69 656e 742f  .Go-http-client/
	0x0080:  312e 310d 0a43 6f6e 7465 6e74 2d4c 656e  1.1..Content-Len
	0x0090:  6774 683a 2031 3132 0d0a 436f 6e74 656e  gth:.112..Conten
	0x00a0:  742d 5479 7065 3a20 6170 706c 6963 6174  t-Type:.applicat
	0x00b0:  696f 6e2f 6f63 7465 742d 7374 7265 616d  ion/octet-stream
	0x00c0:  0d0a 4163 6365 7074 2d45 6e63 6f64 696e  ..Accept-Encodin
	0x00d0:  673a 2067 7a69 700d 0a0d 0aa0 c059 7cbc  g:.gzip......Y|.
	0x00e0:  1d6f 4f09 d0bf b0e1 18ee b997 06db ee07  .oO.............
	0x00f0:  975e 3264 77d7 c51c b713 19ef 4916 c950  .^2dw.......I..P
	0x0100:  6002 2e9f dad4 2c69 e23b 81bc 9bb7 398e  `.....,i.;....9.
	0x0110:  70a1 bae9 7d35 d986 eeac 7a99 4a0c 2b3b  p...}5....z.J.+;
	0x0120:  a8cc 2e03 d776 b14a d9a9 898d 8f2f 3697  .....v.J...../6.
	0x0130:  ea08 7e3f f170 f846 872b eb83 ef53 ae62  ..~?.p.F.+...S.b
	0x0140:  d2b2 4360 6782 29b3 787e 59              ..C`g.).x~Y
11:48:20.954492 ens33 In  IP 16.184.21.18.80 > 192.168.31.131.51468: Flags [.], ack 494, win 64240, length 0
	0x0000:  0800 0000 0000 0002 0001 0006 0050 56fd  .............PV.
	0x0010:  3039 0000 4500 0028 5024 0000 8006 e4b6  09..E..(P$......
	0x0020:  10b8 1512 c0a8 1f83 0050 c90c 1eb9 6438  .........P....d8
	0x0030:  d8c0 cc7f 5010 faf0 bd5f 0000 0000 0000  ....P...._......
	0x0040:  0000                                     ..
11:48:20.961467 ens33 In  IP 16.184.21.18.80 > 192.168.31.131.51468: Flags [P.], seq 365:729, ack 494, win 64240, length 364: HTTP: HTTP/1.1 200 OK
	0x0000:  0800 0000 0000 0002 0001 0006 0050 56fd  .............PV.
	0x0010:  3039 0000 4500 0194 5025 0000 8006 e349  09..E...P%.....I
	0x0020:  10b8 1512 c0a8 1f83 0050 c90c 1eb9 6438  .........P....d8
	0x0030:  d8c0 cc7f 5018 faf0 d48e 0000 4854 5450  ....P.......HTTP
	0x0040:  2f31 2e31 2032 3030 204f 4b0d 0a53 6572  /1.1.200.OK..Ser
	0x0050:  7665 723a 206e 6769 6e78 2f31 2e32 392e  ver:.nginx/1.29.
	0x0060:  310d 0a44 6174 653a 2053 756e 2c20 3238  1..Date:.Sun,.28
	0x0070:  2053 6570 2032 3032 3520 3131 3a34 383a  .Sep.2025.11:48:
	0x0080:  3230 2047 4d54 0d0a 436f 6e74 656e 742d  20.GMT..Content-
	0x0090:  5479 7065 3a20 6170 706c 6963 6174 696f  Type:.applicatio
	0x00a0:  6e2f 6f63 7465 742d 7374 7265 616d 0d0a  n/octet-stream..
	0x00b0:  436f 6e74 656e 742d 4c65 6e67 7468 3a20  Content-Length:.
	0x00c0:  3131 320d 0a43 6f6e 6e65 6374 696f 6e3a  112..Connection:
	0x00d0:  206b 6565 702d 616c 6976 650d 0a58 2d46  .keep-alive..X-F
	0x00e0:  7261 6d65 2d4f 7074 696f 6e73 3a20 4445  rame-Options:.DE
	0x00f0:  4e59 0d0a 582d 436f 6e74 656e 742d 5479  NY..X-Content-Ty
	0x0100:  7065 2d4f 7074 696f 6e73 3a20 6e6f 736e  pe-Options:.nosn
	0x0110:  6966 660d 0a58 2d58 5353 2d50 726f 7465  iff..X-XSS-Prote
	0x0120:  6374 696f 6e3a 2031 3b20 6d6f 6465 3d62  ction:.1;.mode=b
	0x0130:  6c6f 636b 0d0a 0d0a d342 43d3 cc3c 1431  lock.....BC..<.1
	0x0140:  0220 98a1 8517 5373 8a3c 37ad 8dd3 3169  ......Ss.<7...1i
	0x0150:  551d 572c ad72 5f5d 167b 9600 f7c8 befa  U.W,.r_].{......
	0x0160:  95e4 3e74 0527 9d39 3dc4 2c5b 2700 e27c  ..>t.'.9=.,['..|
	0x0170:  d5a4 4350 b2dd 1b85 607a 035a efc4 b74c  ..CP....`z.Z...L
	0x0180:  f4ec efd2 fc18 4d4b 5c9f 1dac 546a b70d  ......MK\...Tj..
	0x0190:  8b6f f41e 0051 d994 6d4f 3d0f 9af1 b477  .o...Q..mO=....w
	0x01a0:  b4ce afe6 0389 baab                      ........
11:48:21.002146 ens33 Out IP 192.168.31.131.51468 > 16.184.21.18.80: Flags [.], ack 729, win 63876, length 0
	0x0000:  0800 0000 0000 0002 0001 0406 000c 2934  ..............)4
	0x0010:  9886 0000 4500 0028 2212 4000 4006 12c9  ....E..(".@.@...
	0x0020:  c0a8 1f83 10b8 1512 c90c 0050 d8c0 cc7f  ...........P....
	0x0030:  1eb9 65a4 5010 f984 0610 0000            ..e.P.......
11:48:29.585941 ens33 Out IP 192.168.31.131.33176 > 16.184.21.18.80: Flags [P.], seq 2063514387:2063514658, ack 2026274396, win 63876, length 271: HTTP: POST /gate HTTP/1.1
	0x0000:  0800 0000 0000 0002 0001 0406 000c 2934  ..............)4
	0x0010:  9886 0000 4500 0137 3c30 4000 4006 f79b  ....E..7<0@.@...
	0x0020:  c0a8 1f83 10b8 1512 8198 0050 7afe bb13  ...........Pz...
	0x0030:  78c6 7e5c 5018 f984 071f 0000 504f 5354  x.~\P.......POST
	0x0040:  202f 6761 7465 2048 5454 502f 312e 310d  ./gate.HTTP/1.1.
	0x0050:  0a48 6f73 743a 2031 362e 3138 342e 3231  .Host:.16.184.21
	0x0060:  2e31 380d 0a55 7365 722d 4167 656e 743a  .18..User-Agent:
	0x0070:  2047 6f2d 6874 7470 2d63 6c69 656e 742f  .Go-http-client/
	0x0080:  312e 310d 0a43 6f6e 7465 6e74 2d4c 656e  1.1..Content-Len
	0x0090:  6774 683a 2031 3132 0d0a 436f 6e74 656e  gth:.112..Conten
	0x00a0:  742d 5479 7065 3a20 6170 706c 6963 6174  t-Type:.applicat
	0x00b0:  696f 6e2f 6f63 7465 742d 7374 7265 616d  ion/octet-stream
	0x00c0:  0d0a 4163 6365 7074 2d45 6e63 6f64 696e  ..Accept-Encodin
	0x00d0:  673a 2067 7a69 700d 0a0d 0a7b 7f7c e4d8  g:.gzip....{.|..
	0x00e0:  3c6d 5ca6 5174 3e8c 71cc 4662 b72c b1c2  <m\.Qt>.q.Fb.,..
	0x00f0:  7b74 f957 8f1d a33d 6c08 3441 19bf 228c  {t.W...=l.4A..".
	0x0100:  d2df b1b5 6fda f1a0 06ef 4ce1 03a8 edac  ....o.....L.....
	0x0110:  3022 0b5e a947 e963 ff8a a643 065c 496c  0".^.G.c...C.\Il
	0x0120:  a0b8 3db1 b7bf 4228 47e0 9e74 fa17 3fec  ..=...B(G..t..?.
	0x0130:  7627 22eb cc4b 8484 b761 1e82 9f4a 2480  v'"..K...a...J$.
	0x0140:  a907 4ee7 c534 3c07 8a8d 03              ..N..4<....
11:48:29.586320 ens33 In  IP 16.184.21.18.80 > 192.168.31.131.33176: Flags [.], ack 271, win 64240, length 0
	0x0000:  0800 0000 0000 0002 0001 0006 0050 56fd  .............PV.
	0x0010:  3039 0000 4500 0028 5026 0000 8006 e4b4  09..E..(P&......
	0x0020:  10b8 1512 c0a8 1f83 0050 8198 78c6 7e5c  .........P..x.~\
	0x0030:  7afe bc22 5010 faf0 fec1 0000 0000 0000  z.."P...........
	0x0040:  0000                                     ..
11:48:29.593695 ens33 In  IP 16.184.21.18.80 > 192.168.31.131.33176: Flags [P.], seq 1:365, ack 271, win 64240, length 364: HTTP: HTTP/1.1 200 OK
	0x0000:  0800 0000 0000 0002 0001 0006 0050 56fd  .............PV.
	0x0010:  3039 0000 4500 0194 5027 0000 8006 e347  09..E...P'.....G
	0x0020:  10b8 1512 c0a8 1f83 0050 8198 78c6 7e5c  .........P..x.~\
	0x0030:  7afe bc22 5018 faf0 74ea 0000 4854 5450  z.."P...t...HTTP
	0x0040:  2f31 2e31 2032 3030 204f 4b0d 0a53 6572  /1.1.200.OK..Ser
	0x0050:  7665 723a 206e 6769 6e78 2f31 2e32 392e  ver:.nginx/1.29.
	0x0060:  310d 0a44 6174 653a 2053 756e 2c20 3238  1..Date:.Sun,.28
	0x0070:  2053 6570 2032 3032 3520 3131 3a34 383a  .Sep.2025.11:48:
	0x0080:  3239 2047 4d54 0d0a 436f 6e74 656e 742d  29.GMT..Content-
	0x0090:  5479 7065 3a20 6170 706c 6963 6174 696f  Type:.applicatio
	0x00a0:  6e2f 6f63 7465 742d 7374 7265 616d 0d0a  n/octet-stream..
	0x00b0:  436f 6e74 656e 742d 4c65 6e67 7468 3a20  Content-Length:.
	0x00c0:  3131 320d 0a43 6f6e 6e65 6374 696f 6e3a  112..Connection:
	0x00d0:  206b 6565 702d 616c 6976 650d 0a58 2d46  .keep-alive..X-F
	0x00e0:  7261 6d65 2d4f 7074 696f 6e73 3a20 4445  rame-Options:.DE
	0x00f0:  4e59 0d0a 582d 436f 6e74 656e 742d 5479  NY..X-Content-Ty
	0x0100:  7065 2d4f 7074 696f 6e73 3a20 6e6f 736e  pe-Options:.nosn
	0x0110:  6966 660d 0a58 2d58 5353 2d50 726f 7465  iff..X-XSS-Prote
	0x0120:  6374 696f 6e3a 2031 3b20 6d6f 6465 3d62  ction:.1;.mode=b
	0x0130:  6c6f 636b 0d0a 0d0a b954 59c9 974b ab45  lock.....TY..K.E
	0x0140:  87ef 5c68 d8f3 f20a a48d 2381 6c31 b343  ..\h......#.l1.C
	0x0150:  d70f 639d 8165 31df 9274 2ea0 822e 6af7  ..c..e1..t....j.
	0x0160:  2d47 eb49 bdd8 79ba d68e 2802 c53d 7fdd  -G.I..y...(..=..
	0x0170:  e081 d429 13bf 4def 55f0 c15b fb66 879c  ...)..M.U..[.f..
	0x0180:  cf21 05d2 4f67 8ddb 174b 69aa 9f2a 5fb3  .!..Og...Ki..*_.
	0x0190:  db27 6edc 435b fbea c818 ba77 1272 40a4  .'n.C[.....w.r@.
	0x01a0:  bafd e708 8ac2 24fa                      ......$.
11:48:29.593713 ens33 Out IP 192.168.31.131.33176 > 16.184.21.18.80: Flags [.], ack 365, win 63876, length 0
	0x0000:  0800 0000 0000 0002 0001 0406 000c 2934  ..............)4
	0x0010:  9886 0000 4500 0028 3c31 4000 4006 f8a9  ....E..(<1@.@...
	0x0020:  c0a8 1f83 10b8 1512 8198 0050 7afe bc22  ...........Pz.."
	0x0030:  78c6 7fc8 5010 f984 0610 0000            x...P.......
