11:58:26.787883 ens33 Out IP 192.168.31.131.47530 > 16.184.21.18.80: Flags [S], seq 1688024988, win 64240, options [mss 1460,sackOK,TS val 1990306984 ecr 0,nop,wscale 7], length 0
	0x0000:  0800 0000 0000 0002 0001 0406 000c 2934  ..............)4
	0x0010:  9886 0000 4500 003c cb04 4000 4006 69c2  ....E..<..@.@.i.
	0x0020:  c0a8 1f83 10b8 1512 b9aa 0050 649d 379c  ...........Pd.7.
	0x0030:  0000 0000 a002 faf0 0624 0000 0204 05b4  .........$......
	0x0040:  0402 080a 76a1 aca8 0000 0000 0103 0307  ....v...........
11:58:26.794787 ens33 In  IP 16.184.21.18.80 > 192.168.31.131.47530: Flags [S.], seq 816788495, ack 1688024989, win 64240, options [mss 1460], length 0
	0x0000:  0800 0000 0000 0002 0001 0006 0050 56fd  .............PV.
	0x0010:  3039 0000 4500 002c e0e3 0000 8006 53f3  09..E..,......S.
	0x0020:  10b8 1512 c0a8 1f83 0050 b9aa 30af 340f  .........P..0.4.
	0x0030:  649d 379d 6012 faf0 dc3c 0000 0204 05b4  d.7.`....<......
	0x0040:  0000                                     ..
11:58:26.794831 ens33 Out IP 192.168.31.131.47530 > 16.184.21.18.80: Flags [.], ack 1, win 64240, length 0
	0x0000:  0800 0000 0000 0002 0001 0406 000c 2934  ..............)4
	0x0010:  9886 0000 4500 0028 cb05 4000 4006 69d5  ....E..(..@.@.i.
	0x0020:  c0a8 1f83 10b8 1512 b9aa 0050 649d 379d  ...........Pd.7.
	0x0030:  30af 3410 5010 faf0 0610 0000            0.4.P.......
11:58:26.795154 ens33 Out IP 192.168.31.131.47530 > 16.184.21.18.80: Flags [P.], seq 1:223, ack 1, win 64240, length 222: HTTP: POST /gate HTTP/1.1
	0x0000:  0800 0000 0000 0002 0001 0406 000c 2934  ..............)4
	0x0010:  9886 0000 4500 0106 cb06 4000 4006 68f6  ....E.....@.@.h.
	0x0020:  c0a8 1f83 10b8 1512 b9aa 0050 649d 379d  ...........Pd.7.
	0x0030:  30af 3410 5018 faf0 06ee 0000 504f 5354  0.4.P.......POST
	0x0040:  202f 6761 7465 2048 5454 502f 312e 310d  ./gate.HTTP/1.1.
	0x0050:  0a48 6f73 743a 2031 362e 3138 342e 3231  .Host:.16.184.21
	0x0060:  2e31 380d 0a55 7365 722d 4167 656e 743a  .18..User-Agent:
	0x0070:  2047 6f2d 6874 7470 2d63 6c69 656e 742f  .Go-http-client/
	0x0080:  312e 310d 0a43 6f6e 7465 6e74 2d4c 656e  1.1..Content-Len
	0x0090:  6774 683a 2036 340d 0a43 6f6e 7465 6e74  gth:.64..Content
	0x00a0:  2d54 7970 653a 2061 7070 6c69 6361 7469  -Type:.applicati
	0x00b0:  6f6e 2f6f 6374 6574 2d73 7472 6561 6d0d  on/octet-stream.
	0x00c0:  0a41 6363 6570 742d 456e 636f 6469 6e67  .Accept-Encoding
	0x00d0:  3a20 677a 6970 0d0a 0d0a e22e 8cbe 1510  :.gzip..........
	0x00e0:  fcf4 3862 7869 4577 6aec f658 95c9 fa56  ..8bxiEwj..X...V
	0x00f0:  b0ff 5ccc f09f 8e56 18dd d79d 56dc ebcc  ..\....V....V...
	0x0100:  e535 5cd7 74e7 eeaf d92a bc44 bb48 cb99  .5\.t....*.D.H..
	0x0110:  efcb 3636 77d8 39f2 421f                 ..66w.9.B.
11:58:26.795534 ens33 In  IP 16.184.21.18.80 > 192.168.31.131.47530: Flags [.], ack 223, win 64240, length 0
	0x0000:  0800 0000 0000 0002 0001 0006 0050 56fd  .............PV.
	0x0010:  3039 0000 4500 0028 e0e4 0000 8006 53f6  09..E..(......S.
	0x0020:  10b8 1512 c0a8 1f83 0050 b9aa 30af 3410  .........P..0.4.
	0x0030:  649d 387b 5010 faf0 f31b 0000 0000 0000  d.8{P...........
	0x0040:  0000                                     ..
11:58:26.802620 ens33 In  IP 16.184.21.18.80 > 192.168.31.131.47530: Flags [P.], seq 1:365, ack 223, win 64240, length 364: HTTP: HTTP/1.1 200 OK
	0x0000:  0800 0000 0000 0002 0001 0006 0050 56fd  .............PV.
	0x0010:  3039 0000 4500 0194 e0e5 0000 8006 5289  09..E.........R.
	0x0020:  10b8 1512 c0a8 1f83 0050 b9aa 30af 3410  .........P..0.4.
	0x0030:  649d 387b 5018 faf0 2110 0000 4854 5450  d.8{P...!...HTTP
	0x0040:  2f31 2e31 2032 3030 204f 4b0d 0a53 6572  /1.1.200.OK..Ser
	0x0050:  7665 723a 206e 6769 6e78 2f31 2e32 392e  ver:.nginx/1.29.
	0x0060:  310d 0a44 6174 653a 2053 756e 2c20 3238  1..Date:.Sun,.28
	0x0070:  2053 6570 2032 3032 3520 3131 3a35 383a  .Sep.2025.11:58:
	0x0080:  3236 2047 4d54 0d0a 436f 6e74 656e 742d  26.GMT..Content-
	0x0090:  5479 7065 3a20 6170 706c 6963 6174 696f  Type:.applicatio
	0x00a0:  6e2f 6f63 7465 742d 7374 7265 616d 0d0a  n/octet-stream..
	0x00b0:  436f 6e74 656e 742d 4c65 6e67 7468 3a20  Content-Length:.
	0x00c0:  3131 320d 0a43 6f6e 6e65 6374 696f 6e3a  112..Connection:
	0x00d0:  206b 6565 702d 616c 6976 650d 0a58 2d46  .keep-alive..X-F
	0x00e0:  7261 6d65 2d4f 7074 696f 6e73 3a20 4445  rame-Options:.DE
	0x00f0:  4e59 0d0a 582d 436f 6e74 656e 742d 5479  NY..X-Content-Ty
	0x0100:  7065 2d4f 7074 696f 6e73 3a20 6e6f 736e  pe-Options:.nosn
	0x0110:  6966 660d 0a58 2d58 5353 2d50 726f 7465  iff..X-XSS-Prote
	0x0120:  6374 696f 6e3a 2031 3b20 6d6f 6465 3d62  ction:.1;.mode=b
	0x0130:  6c6f 636b 0d0a 0d0a d50d 7b99 9cbd a9e6  lock......{.....
	0x0140:  065c 675e 33dc 2f7e 4ed3 f015 26e2 26ef  .\g^3./~N...&.&.
	0x0150:  8fd3 736a 2ae7 1ff4 6d86 82c5 9ca0 9bd8  ..sj*...m.......
	0x0160:  6b6a b911 0031 75df 5929 513c bb82 47e9  kj...1u.Y)Q<..G.
	0x0170:  e7b5 3e53 b9eb f162 a0dc 53f3 dc9a 6df0  ..>S...b..S...m.
	0x0180:  299a c66c d347 da44 8665 db8f f07f dc2f  )..l.G.D.e...../
	0x0190:  5397 bead 817c 1511 afd7 e85a 7f51 e296  S....|.....Z.Q..
	0x01a0:  75e0 e12c dab2 9234                      u..,...4
11:58:26.802632 ens33 Out IP 192.168.31.131.47530 > 16.184.21.18.80: Flags [.], ack 365, win 63876, length 0
	0x0000:  0800 0000 0000 0002 0001 0406 000c 2934  ..............)4
	0x0010:  9886 0000 4500 0028 cb07 4000 4006 69d3  ....E..(..@.@.i.
	0x0020:  c0a8 1f83 10b8 1512 b9aa 0050 649d 387b  ...........Pd.8{
	0x0030:  30af 357c 5010 f984 0610 0000            0.5|P.......
11:58:26.802888 ens33 Out IP 192.168.31.131.47530 > 16.184.21.18.80: Flags [P.], seq 223:494, ack 365, win 63876, length 271: HTTP: POST /gate HTTP/1.1
	0x0000:  0800 0000 0000 0002 0001 0406 000c 2934  ..............)4
	0x0010:  9886 0000 4500 0137 cb08 4000 4006 68c3  ....E..7..@.@.h.
	0x0020:  c0a8 1f83 10b8 1512 b9aa 0050 649d 387b  ...........Pd.8{
	0x0030:  30af 357c 5018 f984 071f 0000 504f 5354  0.5|P.......POST
	0x0040:  202f 6761 7465 2048 5454 502f 312e 310d  ./gate.HTTP/1.1.
	0x0050:  0a48 6f73 743a 2031 362e 3138 342e 3231  .Host:.16.184.21
	0x0060:  2e31 380d 0a55 7365 722d 4167 656e 743a  .18..User-Agent:
	0x0070:  2047 6f2d 6874 7470 2d63 6c69 656e 742f  .Go-http-client/
	0x0080:  312e 310d 0a43 6f6e 7465 6e74 2d4c 656e  1.1..Content-Len
	0x0090:  6774 683a 2031 3132 0d0a 436f 6e74 656e  gth:.112..Conten
	0x00a0:  742d 5479 7065 3a20 6170 706c 6963 6174  t-Type:.applicat
	0x00b0:  696f 6e2f 6f63 7465 742d 7374 7265 616d  ion/octet-stream
	0x00c0:  0d0a 4163 6365 7074 2d45 6e63 6f64 696e  ..Accept-Encodin
	0x00d0:  673a 2067 7a69 700d 0a0d 0af0 bb7e 93ad  g:.gzip......~..
	0x00e0:  4955 a7d9 e66b 03e1 4abd 387d 724a c454  IU...k..J.8}rJ.T
	0x00f0:  470a fc3c 9875 60fe a2a6 1e0f 0155 a989  G..<.u`......U..
	0x0100:  9a46 fc72 a6d4 9779 707c 91d3 2291 c29a  .F.r...yp|.."...
	0x0110:  b48d f9bb 3c9c 9adb 7051 ae7a 0015 416a  ....<...pQ.z..Aj
	0x0120:  ebbf 7fa8 6bf3 3c4a 4393 a254 f5bf 31b1  ....k.<JC..T..1.
	0x0130:  44ef e833 9b26 f713 17c7 45ab 041a 38bb  D..3.&....E...8.
	0x0140:  36ca 07fd 38e2 8c07 5cca 18              6...8...\..
11:58:26.803063 ens33 In  IP 16.184.21.18.80 > 192.168.31.131.47530: Flags [.], ack 494, win 64240, length 0
	0x0000:  0800 0000 0000 0002 0001 0006 0050 56fd  .............PV.
	0x0010:  3039 0000 4500 0028 e0e6 0000 8006 53f4  09..E..(......S.
	0x0020:  10b8 1512 c0a8 1f83 0050 b9aa 30af 357c  .........P..0.5|
	0x0030:  649d 398a 5010 faf0 f0a0 0000 0000 0000  d.9.P...........
	0x0040:  0000                                     ..
11:58:26.811401 ens33 In  IP 16.184.21.18.80 > 192.168.31.131.47530: Flags [P.], seq 365:729, ack 494, win 64240, length 364: HTTP: HTTP/1.1 200 OK
	0x0000:  0800 0000 0000 0002 0001 0006 0050 56fd  .............PV.
	0x0010:  3039 0000 4500 0194 e0e7 0000 8006 5287  09..E.........R.
	0x0020:  10b8 1512 c0a8 1f83 0050 b9aa 30af 357c  .........P..0.5|
	0x0030:  649d 398a 5018 faf0 accb 0000 4854 5450  d.9.P.......HTTP
	0x0040:  2f31 2e31 2032 3030 204f 4b0d 0a53 6572  /1.1.200.OK..Ser
	0x0050:  7665 723a 206e 6769 6e78 2f31 2e32 392e  ver:.nginx/1.29.
	0x0060:  310d 0a44 6174 653a 2053 756e 2c20 3238  1..Date:.Sun,.28
	0x0070:  2053 6570 2032 3032 3520 3131 3a35 383a  .Sep.2025.11:58:
	0x0080:  3236 2047 4d54 0d0a 436f 6e74 656e 742d  26.GMT..Content-
	0x0090:  5479 7065 3a20 6170 706c 6963 6174 696f  Type:.applicatio
	0x00a0:  6e2f 6f63 7465 742d 7374 7265 616d 0d0a  n/octet-stream..
	0x00b0:  436f 6e74 656e 742d 4c65 6e67 7468 3a20  Content-Length:.
	0x00c0:  3131 320d 0a43 6f6e 6e65 6374 696f 6e3a  112..Connection:
	0x00d0:  206b 6565 702d 616c 6976 650d 0a58 2d46  .keep-alive..X-F
	0x00e0:  7261 6d65 2d4f 7074 696f 6e73 3a20 4445  rame-Options:.DE
	0x00f0:  4e59 0d0a 582d 436f 6e74 656e 742d 5479  NY..X-Content-Ty
	0x0100:  7065 2d4f 7074 696f 6e73 3a20 6e6f 736e  pe-Options:.nosn
	0x0110:  6966 660d 0a58 2d58 5353 2d50 726f 7465  iff..X-XSS-Prote
	0x0120:  6374 696f 6e3a 2031 3b20 6d6f 6465 3d62  ction:.1;.mode=b
	0x0130:  6c6f 636b 0d0a 0d0a c443 a63e 5191 a00f  lock.....C.>Q...
	0x0140:  620b 72bd 35f1 ad6c a2a1 27f9 a66d 798d  b.r.5..l..'..my.
	0x0150:  c795 6c83 33dc fe99 ae0d 5330 ba54 561e  ..l.3.....S0.TV.
	0x0160:  0476 0646 02e2 e04d af75 797c acc1 0dec  .v.F...M.uy|....
	0x0170:  78d0 91d2 7c98 3e47 f5ce e225 8758 d937  x...|.>G...%.X.7
	0x0180:  d49d afab 188b f37a 5b1c 2638 027f b5dd  .......z[.&8....
	0x0190:  42d5 9293 b2a6 61ff 6ff3 7f3e 5a25 d460  B.....a.o..>Z%.`
	0x01a0:  2da0 d68e ddf6 6f4d                      -.....oM
11:58:26.854190 ens33 Out IP 192.168.31.131.47530 > 16.184.21.18.80: Flags [.], ack 729, win 63876, length 0
	0x0000:  0800 0000 0000 0002 0001 0406 000c 2934  ..............)4
	0x0010:  9886 0000 4500 0028 cb09 4000 4006 69d1  ....E..(..@.@.i.
	0x0020:  c0a8 1f83 10b8 1512 b9aa 0050 649d 398a  ...........Pd.9.
	0x0030:  30af 36e8 5010 f984 0610 0000            0.6.P.......
11:58:30.022925 ens33 Out IP 192.168.31.131.33176 > 16.184.21.18.80: Flags [P.], seq 2063517097:2063517368, ack 2026278036, win 63876, length 271: HTTP: POST /gate HTTP/1.1
	0x0000:  0800 0000 0000 0002 0001 0406 000c 2934  ..............)4
	0x0010:  9886 0000 4500 0137 3c58 4000 4006 f773  ....E..7<X@.@..s
	0x0020:  c0a8 1f83 10b8 1512 8198 0050 7afe c5a9  ...........Pz...
	0x0030:  78c6 8c94 5018 f984 071f 0000 504f 5354  x...P.......POST
	0x0040:  202f 6761 7465 2048 5454 502f 312e 310d  ./gate.HTTP/1.1.
	0x0050:  0a48 6f73 743a 2031 362e 3138 342e 3231  .Host:.16.184.21
	0x0060:  2e31 380d 0a55 7365 722d 4167 656e 743a  .18..User-Agent:
	0x0070:  2047 6f2d 6874 7470 2d63 6c69 656e 742f  .Go-http-client/
	0x0080:  312e 310d 0a43 6f6e 7465 6e74 2d4c 656e  1.1..Content-Len
	0x0090:  6774 683a 2031 3132 0d0a 436f 6e74 656e  gth:.112..Conten
	0x00a0:  742d 5479 7065 3a20 6170 706c 6963 6174  t-Type:.applicat
	0x00b0:  696f 6e2f 6f63 7465 742d 7374 7265 616d  ion/octet-stream
	0x00c0:  0d0a 4163 6365 7074 2d45 6e63 6f64 696e  ..Accept-Encodin
	0x00d0:  673a 2067 7a69 700d 0a0d 0a60 44f1 8023  g:.gzip....`D..#
	0x00e0:  4a3d 4905 83c1 b57f 3ef4 fb69 2edc 70d6  J=I.....>..i..p.
	0x00f0:  8c47 709e 200d 9753 a4c2 7fd0 8802 efaa  .Gp....S........
	0x0100:  a4d5 349a 6812 15eb 566f c7c0 2be2 9f83  ..4.h...Vo..+...
	0x0110:  256b 4b49 6693 d0bb 4da6 7685 a5d2 ce4e  %kKIf...M.v....N
	0x0120:  4f3f 3521 7a5d 6a2a bf1e c37d 5cbb 89b0  O?5!z]j*...}\...
	0x0130:  b776 c0a7 67d6 4426 0f86 2470 5d81 aa34  .v..g.D&..$p]..4
	0x0140:  0a74 99dc 3ffa d18f acbc b2              .t..?......
11:58:30.023266 ens33 In  IP 16.184.21.18.80 > 192.168.31.131.33176: Flags [.], ack 271, win 64240, length 0
	0x0000:  0800 0000 0000 0002 0001 0006 0050 56fd  .............PV.
	0x0010:  3039 0000 4500 0028 e0e8 0000 8006 53f2  09..E..(......S.
	0x0020:  10b8 1512 c0a8 1f83 0050 8198 78c6 8c94  .........P..x...
	0x0030:  7afe c6b8 5010 faf0 e5f3 0000 0000 0000  z...P...........
	0x0040:  0000                                     ..
11:58:30.031853 ens33 In  IP 16.184.21.18.80 > 192.168.31.131.33176: Flags [P.], seq 1:365, ack 271, win 64240, length 364: HTTP: HTTP/1.1 200 OK
	0x0000:  0800 0000 0000 0002 0001 0006 0050 56fd  .............PV.
	0x0010:  3039 0000 4500 0194 e0e9 0000 8006 5285  09..E.........R.
	0x0020:  10b8 1512 c0a8 1f83 0050 8198 78c6 8c94  .........P..x...
	0x0030:  7afe c6b8 5018 faf0 a7d5 0000 4854 5450  z...P.......HTTP
	0x0040:  2f31 2e31 2032 3030 204f 4b0d 0a53 6572  /1.1.200.OK..Ser
	0x0050:  7665 723a 206e 6769 6e78 2f31 2e32 392e  ver:.nginx/1.29.
	0x0060:  310d 0a44 6174 653a 2053 756e 2c20 3238  1..Date:.Sun,.28
	0x0070:  2053 6570 2032 3032 3520 3131 3a35 383a  .Sep.2025.11:58:
	0x0080:  3330 2047 4d54 0d0a 436f 6e74 656e 742d  30.GMT..Content-
	0x0090:  5479 7065 3a20 6170 706c 6963 6174 696f  Type:.applicatio
	0x00a0:  6e2f 6f63 7465 742d 7374 7265 616d 0d0a  n/octet-stream..
	0x00b0:  436f 6e74 656e 742d 4c65 6e67 7468 3a20  Content-Length:.
	0x00c0:  3131 320d 0a43 6f6e 6e65 6374 696f 6e3a  112..Connection:
	0x00d0:  206b 6565 702d 616c 6976 650d 0a58 2d46  .keep-alive..X-F
	0x00e0:  7261 6d65 2d4f 7074 696f 6e73 3a20 4445  rame-Options:.DE
	0x00f0:  4e59 0d0a 582d 436f 6e74 656e 742d 5479  NY..X-Content-Ty
	0x0100:  7065 2d4f 7074 696f 6e73 3a20 6e6f 736e  pe-Options:.nosn
	0x0110:  6966 660d 0a58 2d58 5353 2d50 726f 7465  iff..X-XSS-Prote
	0x0120:  6374 696f 6e3a 2031 3b20 6d6f 6465 3d62  ction:.1;.mode=b
	0x0130:  6c6f 636b 0d0a 0d0a 7cd9 3bdf 8953 e1f9  lock....|.;..S..
	0x0140:  41c1 11c9 2284 8efd b7f3 0c15 6683 5e0f  A...".......f.^.
	0x0150:  fde7 89a0 a906 1092 7627 28fc 9c37 4643  ........v'(..7FC
	0x0160:  087b 0d80 86cd a0b3 4297 f459 2ea8 cf01  .{......B..Y....
	0x0170:  5055 50d4 d427 d376 a3c0 df3d 256a ba2c  PUP..'.v...=%j.,
	0x0180:  42e4 e8b1 02bf 738d 964b 2cc2 ac6a 64ca  B.....s..K,..jd.
	0x0190:  daec a40a 0d28 ac01 b6e4 4ca6 63ba 48e2  .....(....L.c.H.
	0x01a0:  f7d3 8f33 67f2 83f3                      ...3g...
11:58:30.031859 ens33 Out IP 192.168.31.131.33176 > 16.184.21.18.80: Flags [.], ack 365, win 63876, length 0
	0x0000:  0800 0000 0000 0002 0001 0406 000c 2934  ..............)4
	0x0010:  9886 0000 4500 0028 3c59 4000 4006 f881  ....E..(<Y@.@...
	0x0020:  c0a8 1f83 10b8 1512 8198 0050 7afe c6b8  ...........Pz...
	0x0030:  78c6 8e00 5010 f984 0610 0000            x...P.......
